S00B00006C65642E73726563E4
S11300000C9434000C943E000C943E000C943E007E
S11300100C943E000C943E000C943E000C943E0064
S11300200C943E000C943E000C943E000C943E0054
S11300300C943E000C943E000C943E000C943E0044
S11300400C943E000C943E000C943E000C943E0034
S11300500C943E000C943E000C943E000C943E0024
S11300600C943E000C943E0011241FBECFEFD8E048
S1130070DEBFCDBF0E9440000C94C6000C9400006B
S1130080259A2D9880E295B1982795B92FEF3EE9EE
S113009094E2215030409040E1F700C000002D98D8
S11300A095B1982795B92FEF34E39CE02150304067
S11300B09040E1F700C000002D9895B1982795B9BC
S11300C02FEF34E39CE0215030409040E1F700C032
S11300D000002D9895B1982795B92FEF34E39CE053
S11300E0215030409040E1F700C000002D9895B1B8
S11300F0982795B92FEF34E39CE02150304090408D
S1130100E1F700C000002D9895B1982795B92FEF1D
S113011034E39CE0215030409040E1F700C00000FF
S11301202D9895B1982795B92FEF34E39CE0215091
S113013030409040E1F700C000002D9895B1982719
S113014095B92FEF3EE994E2215030409040E1F719
S113015000C000002D9895B1982795B92FEF3EE97E
S113016094E2215030409040E1F700C000002D9807
S113017095B1982795B92FEF3EE994E2215030408C
S11301809040E1F700C000002D987DCFF894FFCF98
S9030000FC
