:100000000C9434000C9446000C9446000C9446006A
:100010000C9446000C9446000C9446000C94460048
:100020000C9446000C9451010C9446000C9446002C
:100030000C9446000C9446000C9446000C94460028
:100040000C9446000C9446000C9446000C94460018
:100050000C9446000C9446000C9446000C94460008
:100060000C9446000C94460011241FBECFEFD8E03C
:10007000DEBFCDBF21E0A0E0B1E001C01D92A33002
:10008000B207E1F70E943D010C94EF010C940000CF
:1000900085B1826085B985E08A95F1F7000085B168
:1000A0008D7F85B90895CF93C82F662321F085B140
:1000B000816085B903C085B18E7F85B98AB18061C1
:1000C0008AB98AB180628AB98AB180648AB98AB1F0
:1000D00080688AB98BB18F778BB98BB18F7B8BB9E5
:1000E0008BB18F7D8BB98BB18F7E8BB9CC231CF4F8
:1000F0008BB180688BB9C6FF03C08BB180648BB9AC
:10010000C5FF03C08BB180628BB9C4FF03C08BB144
:1001100080618BB90E9448008BB18F778BB98BB10E
:100120008F7B8BB98BB18F7D8BB98BB18F7E8BB968
:10013000C3FF03C08BB180688BB9C2FF03C08BB112
:1001400080648BB9C1FF03C08BB180628BB9C0FFE3
:1001500003C08BB180618BB90E9448008BB1806174
:100160008BB98BB180628BB98BB180648BB98BB149
:1001700080688BB987EB9BE00197F1F700C0000026
:10018000CF91089560E00E9453000895611104C06A
:1001900080580E94C200089580540E94C2000895B1
:1001A00081E00E94C200089561E00E94530008951A
:1001B000CF93DF93FC0103C00E94D400FE01EF0146
:1001C000219680818111F8CFDF91CF910895CF934F
:1001D000C82F84B1816084B98AB180628AB984B140
:1001E000826084B98AB180618AB98AB180628AB931
:1001F0008AB180648AB98AB180688AB98FEF99EF31
:100200000197F1F700C000008BB180628BB98BB110
:1002100080618BB90E9448008FE19EE40197F1F75D
:1002200000C000000E9448008FEF90E00197F1F7B6
:1002300000C000000E9448008FEF90E00197F1F7A6
:1002400000C000008BB18F7E8BB90E9448008FEFF9
:1002500090E00197F1F700C0000088E20E94C20020
:1002600088E00E94C2000E94D00086E00E94C20086
:100270008C2F0E94C200CF9108958CE00E94E7006D
:10028000E1EBF0E080818D7F8083E1E8F0E0808128
:1002900085608083E0E7F0E08081816080837894EE
:1002A000FFCF1F920F920FB60F9211242F933F93FF
:1002B0004F935F936F937F938F939F93AF93BF936E
:1002C000EF93FF93CF93DF9300D0CDB7DEB780E2FB
:1002D00090E29A838983809102018F5F863028F0B3
:1002E000809101018F5F8093010110920201809142
:1002F00001018F5F809301018A3038F01092010173
:10030000809100018F5F80930001809100018D3307
:1003100010F01092000160E084E00E94C60080911D
:1003200000014AE0BE016F5F7F4F90E00E94BA017A
:10033000CE0101960E94D80060E087E00E94C600CE
:1003400080910101805D0E94D4000F900F90DF9199
:10035000CF91FF91EF91BF91AF919F918F917F913D
:100360006F915F914F913F912F910F900FBE0F9022
:100370001F901895BB274A3031F4992322F4BDE22F
:10038000909581959F4F0C94C601BB27FB01552783
:10039000AA27880F991FAA1FA41710F0A41B8395E2
:1003A0005051B9F7A05DAA3308F0A95DA193009759
:1003B00079F7B111B1931192CB010C94DF01DC01FB
:1003C000FC01672F71917723E1F7329704C07C918C
:1003D0006D9370836291AE17BF07C8F30895F894C8
:0203E000FFCF4D
:00000001FF
