:100000000C9434000C943E000C943E000C943E0082
:100010000C943E000C943E000C943E000C943E0068
:100020000C943E000C943E000C943E000C943E0058
:100030000C943E000C943E000C943E000C943E0048
:100040000C943E000C943E000C943E000C943E0038
:100050000C943E000C943E000C943E000C943E0028
:100060000C943E000C943E0011241FBECFEFD8E04C
:10007000DEBFCDBF0E9440000C946C000C940000C9
:1000800084B1806284B985B18F7D85B987B1806282
:1000900087B988B18F7D88B98AB18E7F8AB98BB1D3
:1000A00081608BB92FEF89E698E121508040904024
:1000B000E1F700C0000095B180E2982795B998B1AA
:1000C000892788B94899EECF95B180E2982795B9EC
:0C00D00098B1892788B9E6CFF894FFCFDB
:00000001FF
