S00C00006C6564732E7372656370
S11300000C9434000C943E000C943E000C943E007E
S11300100C943E000C943E000C943E000C943E0064
S11300200C943E000C943E000C943E000C943E0054
S11300300C943E000C943E000C943E000C943E0044
S11300400C943E000C943E000C943E000C943E0034
S11300500C943E000C943E000C943E000C943E0024
S11300600C943E000C943E0011241FBECFEFD8E048
S1130070DEBFCDBF0E9440000C9464000C940000CD
S1130080259A2D983D9A459880E22FEF39E698E11C
S1130090215030409040E1F700C0000095B198270E
S11300A095B998B1982798B92FEF39E698E121507E
S11300B030409040E1F700C0000095B1982795B911
S10F00C098B1982798B9E1CFF894FFCFCD
S9030000FC
