S01700004763634170706C69636174696F6E312E737265635B
S11300000C9434000C9451000C9451000C94510045
S11300100C9451000C9451000C9451000C94510018
S11300200C9451000C9479000C9451000C945100E0
S11300300C9451000C94F5000C9451000C94510054
S11300400C9451000C9451000C9482010C94B00156
S11300500C9451000C9451000C9451000C945100D8
S11300600C9451000C94510011241FBECFEFD8E022
S1130070DEBFCDBF11E0A0E0B1E0ECE9F4E002C0E6
S113008005900D92A032B107D9F721E0A0E2B1E0CA
S113009001C01D92A536B207E1F70E9453000C94EB
S11300A04C020C9400000E943B0187E690E00E9401
S11300B0DA01E1E8F0E080818D7F808380818560D2
S11300C08083AFE6B0E08C9181608C93A1EBB0E0CB
S11300D08C918D7F8C93808185608083E0E7F0E054
S11300E0808181608083789482E091E00E9408029C
S11300F0FFCF1F920F920FB60F9211241F932F93CD
S11301003F934F935F936F937F938F939F93AF939B
S1130110BF93EF93FF93CF93DF9300D0CDB7DEB7B8
S113012080E390E39A838983809101018230E9F02E
S1130130833069F1813009F03FC0809100018F5F05
S113014080930001873720F092E09093010103C06F
S113015091E090930101893791F58DE191E00E943E
S1130160080287E0809300012AC080910001880F73
S11301700E944A01182F0E947E01111104C083E0DD
S1130180809301011CC081E08093010118C080911B
S1130190000140E1BE016F5F7F4F90E00E941702B3
S11301A0CE0101960E9408028DE191E00E940802AE
S11301B081E08093010103C081E0809301010F90ED
S11301C00F90DF91CF91FF91EF91BF91AF919F91EC
S11301D08F917F916F915F914F913F912F911F91DB
S11301E00F900FBE0F901F9018951F920F920FB68D
S11301F00F9211242F933F934F935F936F937F93A9
S11302008F939F93AF93BF93EF93FF93CF93DF931A
S113021000D01F92CDB7DEB780E390E39A83898341
S113022080E38B8388EB0E944A0182E00E9468018C
S11302300E9473014AE0BE016F5F7F4F90E00E940D
S11302401702CE0101960E9408020F900F900F90A2
S1130250DF91CF91FF91EF91BF91AF919F918F91DA
S11302607F916F915F914F913F912F910F900FBEAE
S11302700F901F90189587B18F7C87B988B18063E0
S113028088B9E9EBF0E080818C7F808388E98093F2
S1130290B800089594EA9093BC00ECEBF0E09081F0
S11302A09923ECF78093BB0084E88093BC00ECEBCB
S11302B0F0E080818823ECF79091B900987F983121
S11302C029F081E0903419F480E0089580E00895E5
S11302D08093BB0084E88093BC00ECEBF0E0808169
S11302E08823ECF7089584E88093BC00ECEBF0E0FD
S11302F080818823ECF78091BB00089584E9809382
S1130300BC0008951F920F920FB60F9211242F93E1
S11303108F939F93EF93FF938091C0002091C60029
S11303208C71E0912201EF5FEF7190912101E91747
S113033039F0E0932201F0E0EB5DFE4F208301C031
S113034082E090912001892B80932001FF91EF910D
S11303509F918F912F910F900FBE0F901F90189522
S11303601F920F920FB60F9211248F939F93EF93C6
S1130370FF939091240180912301981769F0E091F3
S11303802301EF5FEF71E0932301F0E0EB5BFE4F9D
S113039080818093C60005C0E1ECF0E080818F7D10
S11303A08083FF91EF919F918F910F900FBE0F90DB
S11303B01F9018951092240110922301109222018B
S11303C01092210199231CF422E02093C00090781C
S11303D09093C5008093C40088E98093C10086E0AF
S11303E08093C2000895209124012F5F2F71909172
S11303F023012917E1F3E22FF0E0EB5BFE4F80834A
S113040020932401E1ECF0E08081806280830895F0
S1130410CF93DF93EC018881882331F021960E94E9
S1130420F30189918111FBCFDF91CF910895BB270F
S11304304A3031F4992322F4BDE2909581959F4F7F
S11304400C942302BB27FB015527AA27880F991F69
S1130450AA1FA41710F0A41B83955051B9F7A05DEF
S1130460AA3308F0A95DA193009779F7B111B1936C
S11304701192CB010C943C02DC01FC01672F7191B9
S11304807723E1F7329704C07C916D937083629176
S10F0490AE17BF07C8F30895F894FFCF1F
S113049C07010D0A5363616E204932432D62757353
S11304AC20666F7220646576696365733A0D0A0081
S9030000FC
