S01400004C6564496E746572727570742E737265632E
S11300000C9434000C9446000C9446000C94460066
S11300100C9446000C9446000C9446000C94460044
S11300200C9446000C9446000C9446000C94460034
S11300300C9446000C94A5000C9446000C944600C5
S11300400C9446000C9446000C9446000C94460014
S11300500C9446000C9446000C9446000C94460004
S11300600C9446000C94460011241FBECFEFD8E038
S1130070DEBFCDBF21E0A0E0B1E001C01D92A430FD
S1130080B207E1F70E9461000C94C5000C940000D3
S1130090FC01408121E030E002C0220F331F6A9549
S11300A0E2F7242B20830895FC01908121E030E0C5
S11300B002C0220F331F6A95E2F72095292320837B
S11300C0089565E084E290E00E94480065E085E2DE
S11300D090E00E945400E1E8F0E080818B7F80830F
S11300E0808183608083EFE6F0E08081816080839B
S11300F0789454E048E030E120E28091020190914C
S11301000301019721F485B1822785B9F6CF809147
S1130110020190910301029721F485B1832785B9E7
S1130120ECCF8091020190910301039721F485B1F2
S1130130842785B9E2CF809102019091030104974D
S1130140E1F685B1852785B9D8CF1F920F920FB6F6
S11301500F9211248F939F9380910001909101013C
S11301608430910530F00197909301018093000150
S113017005C0019690930101809300019F918F9196
S11101800F900FBE0F901F901895F894FFCFAC
S9030000FC
