:100000000C9434000C943E000C943E000C943E0082
:100010000C943E000C943E000C943E000C943E0068
:100020000C943E000C943E000C943E000C943E0058
:100030000C943E000C943E000C943E000C943E0048
:100040000C943E000C943E000C943E000C943E0038
:100050000C943E000C943E000C943E000C943E0028
:100060000C943E000C943E0011241FBECFEFD8E04C
:10007000DEBFCDBF0E9476000C94A1000C9400005E
:10008000FC01408121E030E002C0220F331F6A955D
:10009000E2F7242B20830895FC01808121E030E0E9
:1000A00002C0220F331F6A95E2F7922F90958923A1
:1000B00080838181282B21830895FC01908121E098
:1000C00030E002C0220F331F6A95E2F72095292302
:1000D00020830895FC01408121E030E002C0220F1E
:1000E000331F6A95E2F7242B2083089565E084E2AC
:1000F00090E00E94400065E085E290E00E945D0093
:1001000060E087E290E00E94400060E088E290E0DA
:100110000E946A0060E08AE290E00E944C0020E2C7
:1001200091E03FEF49E688E1315040408040E1F7FF
:1001300000C0000085B1822785B988B1892788B9B8
:06014000F0CFF894FFCFA0
:00000001FF
