S00F00004770696F4C45442E73726563B1
S11300000C9434000C943E000C943E000C943E007E
S11300100C943E000C943E000C943E000C943E0064
S11300200C943E000C943E000C943E000C943E0054
S11300300C943E000C943E000C943E000C943E0044
S11300400C943E000C943E000C943E000C943E0034
S11300500C943E000C943E000C943E000C943E0024
S11300600C943E000C943E0011241FBECFEFD8E048
S1130070DEBFCDBF0E9484000C94B6000C94000037
S1130080FC01408121E030E002C0220F331F6A9559
S1130090E2F7242B20830895FC01808121E030E0E5
S11300A002C0220F331F6A95E2F7922F909589239D
S11300B080838181282B21830895FC01908121E094
S11300C030E002C0220F331F6A95E2F720952923FE
S11300D020830895FC01408121E030E002C0220F1A
S11300E0331F6A95E2F7242B20830895FC01808155
S11300F090E002C0959587956A95E2F780FF02C06B
S113010080E0089581E0089565E084E290E00E9433
S1130110400065E085E290E00E945D0060E087E2D7
S113012090E00E94400060E088E290E00E946A0053
S113013060E08AE290E00E944C0060E089E290E096
S11301400E9476008111F9CF2FEF89E698E12150C2
S113015080409040E1F700C0000095B180E289271B
S113016085B998B181E0892788B9E7CFF894FFCFA2
S9030000FC
